:100000000C942A000C9452030C9479030C94A003D2
:100010000C943C000C943C000C943C000C943C0070
:100020000C943C000C943C000C943C000C943C0060
:100030000C943C000C943C000C943C000C943C0050
:100040000C943C000C943C000C943C000C943C0040
:100050000C943C0011241FBECFE5D8E0DEBFCDBF1D
:1000600020E0A0E6B0E001C01D92A636B207E1F79D
:100070000E9423020C94C7030C940000CF93DF93DB
:100080001F92CDB7DEB70E94EA010E942602CE0180
:1000900001960E9437028981833389F028F48133E5
:1000A00041F0823349F0F3CF843361F0853369F056
:1000B000EECF0E946800EBCF0E943401E8CF0E948F
:1000C000D100E5CF0E94A100E2CF0E940401DFCF62
:1000D00081E00E94700140E063E082E00E94CA0279
:1000E00041E064E082E00E94CA0240E065E082E014
:1000F0000E94CA0241E066E082E00E94CA0241E03A
:1001000065E081E00E94CA0241E066E081E00E9471
:10011000CA020E94EA0186E60E94AD018FE60E94B3
:10012000AD0182E70E94AD0187E70E94AD0181E643
:100130000E94AD0182E70E94AD0184E60E94AD01FC
:10014000089581E00E94700140E063E082E00E9437
:10015000CA0241E064E082E00E94CA0240E065E039
:1001600082E00E94CA0240E066E082E00E94CA0289
:1001700041E065E081E00E94CA0240E066E081E083
:100180000E94CA020E94EA018CE60E94AD0185E647
:100190000E94AD0186E60E94AD0184E70E94AD0198
:1001A000089581E00E94700140E063E082E00E94D7
:1001B000CA0240E064E082E00E94CA0240E065E0DA
:1001C00082E00E94CA0241E066E082E00E94CA0228
:1001D00040E065E081E00E94CA0241E066E081E023
:1001E0000E94CA020E94EA0182E70E94AD0189E6EC
:1001F0000E94AD0187E60E94AD0188E60E94AD0134
:1002000084E70E94AD01089581E00E94700140E002
:1002100063E082E00E94CA0240E064E082E00E9463
:10022000CA0240E065E082E00E94CA0240E066E067
:1002300082E00E94CA0240E065E081E00E94CA02BA
:1002400040E066E081E00E94CA020E94EA0183E782
:100250000E94AD0184E70E94AD018FE60E94AD01CE
:1002600080E70E94AD01089581E00E94700141E0A5
:1002700063E082E00E94CA0240E064E082E00E9403
:10028000CA0241E065E082E00E94CA0240E066E006
:1002900082E00E94CA0241E065E081E00E94CA0259
:1002A00041E066E081E00E94CA020E94EA0182E623
:1002B0000E94AD0181E60E94AD0183E60E94AD017E
:1002C0008BE60E94AD0187E70E94AD0181E60E94A6
:1002D000AD0182E70E94AD0184E60E94AD01089560
:1002E000CF93C82F40E061E081E00E94CA0240E065
:1002F00062E081E00E94CA028BB38F709C2F907FD6
:10030000892B8BBB41E063E081E00E94CA028FE34E
:100310009FE10197F1F700C0000040E063E081E059
:100320000E94CA022BB330E1C39FC0011124922F57
:100330009F70892B8BBB41E063E081E00E94CA0281
:100340008FE39FE10197F1F700C0000040E063E018
:1003500081E00E94CA02CF910895CF93C82F41E057
:1003600061E081E00E94CA0240E062E081E00E9418
:10037000CA028BB38F709C2F907F892B8BBB41E07F
:1003800063E081E00E94CA028FE19EE40197F1F7E9
:1003900000C0000040E063E081E00E94CA022BB38D
:1003A00030E1C39FC0011124922F9F70892B8BBB1A
:1003B00041E063E081E00E94CA028FE19EE4019780
:1003C000F1F700C0000040E063E081E00E94CA0253
:1003D000CF91089541E061E081E00E94420241E056
:1003E00062E081E00E94420241E063E081E00E941D
:1003F000420241E064E080E00E94420241E065E0A8
:1004000080E00E94420241E066E080E00E944202F9
:1004100041E067E080E00E94420282E00E947001B9
:1004200086E00E9470018CE00E94700188E20E94C8
:10043000700181E00E9470018FE39CE90197F1F760
:1004400000C0000008950E943E00FDCF8BB18D7F5B
:100450008BB987E689B986E880BD8AB18B7F8AB976
:100460008AB188608AB98AB180618AB90895009793
:1004700039F05F9BFECF2CB1FC01208381E0089511
:1004800080E00895843008F07BC0683008F07AC0BE
:100490004130C1F5813091F028F08230D9F08330BD
:1004A00029F172C02AB381E090E002C0880F991F41
:1004B0006A95E2F7822B8ABB81E0089527B381E039
:1004C00090E002C0880F991F6A95E2F7822B87BBE4
:1004D00081E0089524B381E090E002C0880F991F65
:1004E0006A95E2F7822B84BB81E0089521B381E015
:1004F00090E002C0880F991F6A95E2F7822B81BBBA
:1005000081E00895411142C0813099F028F0823095
:10051000E9F0833041F13CC02AB381E090E002C0B1
:10052000880F991F6A95E2F7809582238ABB81E044
:10053000089527B381E090E002C0880F991F6A9563
:10054000E2F78095822387BB81E0089524B381E0A0
:1005500090E002C0880F991F6A95E2F78095822388
:1005600084BB81E0089521B381E090E002C0880F50
:10057000991F6A95E2F78095822381BB81E00895F7
:1005800080E0089580E0089580E0089580E0089577
:1005900080E00895843008F07BC0683008F07AC0AD
:1005A0004130C1F5813091F028F08230D9F08330AC
:1005B00029F172C02BB381E090E002C0880F991F2F
:1005C0006A95E2F7822B8BBB81E0089528B381E026
:1005D00090E002C0880F991F6A95E2F7822B88BBD2
:1005E00081E0089525B381E090E002C0880F991F53
:1005F0006A95E2F7822B85BB81E0089522B381E002
:1006000090E002C0880F991F6A95E2F7822B82BBA7
:1006100081E00895411142C0813099F028F0823084
:10062000E9F0833041F13CC02BB381E090E002C09F
:10063000880F991F6A95E2F7809582238BBB81E032
:10064000089528B381E090E002C0880F991F6A9551
:10065000E2F78095822388BB81E0089525B381E08D
:1006600090E002C0880F991F6A95E2F78095822377
:1006700085BB81E0089522B381E090E002C0880F3D
:10068000991F6A95E2F78095822382BB81E00895E5
:1006900080E0089580E0089580E0089580E0089566
:1006A00080E008951F920F920FB60F9211242F939E
:1006B0003F934F935F936F937F938F939F93AF93EA
:1006C000BF93EF93FF93E0916000F0916100099573
:1006D000FF91EF91BF91AF919F918F917F916F911A
:1006E0005F914F913F912F910F900FBE0F901F90F0
:1006F00018951F920F920FB60F9211242F933F93CC
:100700004F935F936F937F938F939F93AF93BF9319
:10071000EF93FF93E0916400F09165000995FF91DC
:10072000EF91BF91AF919F918F917F916F915F9169
:100730004F913F912F910F900FBE0F901F901895E2
:100740001F920F920FB60F9211242F933F934F9346
:100750005F936F937F938F939F93AF93BF93EF9329
:10076000FF93E0916200F09163000995FF91EF9192
:10077000BF91AF919F918F917F916F915F914F91B9
:100780003F912F910F900FBE0F901F901895F894E6
:02079000FFCF99
:00000001FF
